{
  "_format": "hh-sol-artifact-1",
  "contractName": "JKNFT",
  "sourceName": "contracts/JKNFT.sol",
  "abi": [
    {
      "inputs": [],
      "stateMutability": "nonpayable",
      "type": "constructor"
    },
    {
      "anonymous": false,
      "inputs": [
        {
          "indexed": true,
          "internalType": "address",
          "name": "owner",
          "type": "address"
        },
        {
          "indexed": true,
          "internalType": "address",
          "name": "approved",
          "type": "address"
        },
        {
          "indexed": true,
          "internalType": "uint256",
          "name": "tokenId",
          "type": "uint256"
        }
      ],
      "name": "Approval",
      "type": "event"
    },
    {
      "anonymous": false,
      "inputs": [
        {
          "indexed": true,
          "internalType": "address",
          "name": "owner",
          "type": "address"
        },
        {
          "indexed": true,
          "internalType": "address",
          "name": "operator",
          "type": "address"
        },
        {
          "indexed": false,
          "internalType": "bool",
          "name": "approved",
          "type": "bool"
        }
      ],
      "name": "ApprovalForAll",
      "type": "event"
    },
    {
      "anonymous": false,
      "inputs": [
        {
          "indexed": true,
          "internalType": "address",
          "name": "previousOwner",
          "type": "address"
        },
        {
          "indexed": true,
          "internalType": "address",
          "name": "newOwner",
          "type": "address"
        }
      ],
      "name": "OwnershipTransferred",
      "type": "event"
    },
    {
      "anonymous": false,
      "inputs": [
        {
          "indexed": true,
          "internalType": "address",
          "name": "from",
          "type": "address"
        },
        {
          "indexed": true,
          "internalType": "address",
          "name": "to",
          "type": "address"
        },
        {
          "indexed": true,
          "internalType": "uint256",
          "name": "tokenId",
          "type": "uint256"
        }
      ],
      "name": "Transfer",
      "type": "event"
    },
    {
      "inputs": [],
      "name": "MAX_SUPPLY",
      "outputs": [
        {
          "internalType": "uint256",
          "name": "",
          "type": "uint256"
        }
      ],
      "stateMutability": "view",
      "type": "function"
    },
    {
      "inputs": [],
      "name": "MINT_PRICE",
      "outputs": [
        {
          "internalType": "uint256",
          "name": "",
          "type": "uint256"
        }
      ],
      "stateMutability": "view",
      "type": "function"
    },
    {
      "inputs": [
        {
          "internalType": "address",
          "name": "to",
          "type": "address"
        },
        {
          "internalType": "uint256",
          "name": "tokenId",
          "type": "uint256"
        }
      ],
      "name": "approve",
      "outputs": [],
      "stateMutability": "nonpayable",
      "type": "function"
    },
    {
      "inputs": [
        {
          "internalType": "address",
          "name": "owner",
          "type": "address"
        }
      ],
      "name": "balanceOf",
      "outputs": [
        {
          "internalType": "uint256",
          "name": "",
          "type": "uint256"
        }
      ],
      "stateMutability": "view",
      "type": "function"
    },
    {
      "inputs": [
        {
          "internalType": "uint256",
          "name": "tokenId",
          "type": "uint256"
        }
      ],
      "name": "getApproved",
      "outputs": [
        {
          "internalType": "address",
          "name": "",
          "type": "address"
        }
      ],
      "stateMutability": "view",
      "type": "function"
    },
    {
      "inputs": [
        {
          "internalType": "address",
          "name": "owner",
          "type": "address"
        },
        {
          "internalType": "address",
          "name": "operator",
          "type": "address"
        }
      ],
      "name": "isApprovedForAll",
      "outputs": [
        {
          "internalType": "bool",
          "name": "",
          "type": "bool"
        }
      ],
      "stateMutability": "view",
      "type": "function"
    },
    {
      "inputs": [],
      "name": "name",
      "outputs": [
        {
          "internalType": "string",
          "name": "",
          "type": "string"
        }
      ],
      "stateMutability": "view",
      "type": "function"
    },
    {
      "inputs": [],
      "name": "owner",
      "outputs": [
        {
          "internalType": "address",
          "name": "",
          "type": "address"
        }
      ],
      "stateMutability": "view",
      "type": "function"
    },
    {
      "inputs": [
        {
          "internalType": "uint256",
          "name": "tokenId",
          "type": "uint256"
        }
      ],
      "name": "ownerOf",
      "outputs": [
        {
          "internalType": "address",
          "name": "",
          "type": "address"
        }
      ],
      "stateMutability": "view",
      "type": "function"
    },
    {
      "inputs": [],
      "name": "renounceOwnership",
      "outputs": [],
      "stateMutability": "nonpayable",
      "type": "function"
    },
    {
      "inputs": [
        {
          "internalType": "address",
          "name": "to",
          "type": "address"
        },
        {
          "internalType": "string",
          "name": "uri",
          "type": "string"
        }
      ],
      "name": "safeMint",
      "outputs": [],
      "stateMutability": "payable",
      "type": "function"
    },
    {
      "inputs": [
        {
          "internalType": "address",
          "name": "from",
          "type": "address"
        },
        {
          "internalType": "address",
          "name": "to",
          "type": "address"
        },
        {
          "internalType": "uint256",
          "name": "tokenId",
          "type": "uint256"
        }
      ],
      "name": "safeTransferFrom",
      "outputs": [],
      "stateMutability": "nonpayable",
      "type": "function"
    },
    {
      "inputs": [
        {
          "internalType": "address",
          "name": "from",
          "type": "address"
        },
        {
          "internalType": "address",
          "name": "to",
          "type": "address"
        },
        {
          "internalType": "uint256",
          "name": "tokenId",
          "type": "uint256"
        },
        {
          "internalType": "bytes",
          "name": "data",
          "type": "bytes"
        }
      ],
      "name": "safeTransferFrom",
      "outputs": [],
      "stateMutability": "nonpayable",
      "type": "function"
    },
    {
      "inputs": [
        {
          "internalType": "address",
          "name": "operator",
          "type": "address"
        },
        {
          "internalType": "bool",
          "name": "approved",
          "type": "bool"
        }
      ],
      "name": "setApprovalForAll",
      "outputs": [],
      "stateMutability": "nonpayable",
      "type": "function"
    },
    {
      "inputs": [
        {
          "internalType": "bytes4",
          "name": "interfaceId",
          "type": "bytes4"
        }
      ],
      "name": "supportsInterface",
      "outputs": [
        {
          "internalType": "bool",
          "name": "",
          "type": "bool"
        }
      ],
      "stateMutability": "view",
      "type": "function"
    },
    {
      "inputs": [],
      "name": "symbol",
      "outputs": [
        {
          "internalType": "string",
          "name": "",
          "type": "string"
        }
      ],
      "stateMutability": "view",
      "type": "function"
    },
    {
      "inputs": [
        {
          "internalType": "uint256",
          "name": "index",
          "type": "uint256"
        }
      ],
      "name": "tokenByIndex",
      "outputs": [
        {
          "internalType": "uint256",
          "name": "",
          "type": "uint256"
        }
      ],
      "stateMutability": "view",
      "type": "function"
    },
    {
      "inputs": [
        {
          "internalType": "address",
          "name": "owner",
          "type": "address"
        },
        {
          "internalType": "uint256",
          "name": "index",
          "type": "uint256"
        }
      ],
      "name": "tokenOfOwnerByIndex",
      "outputs": [
        {
          "internalType": "uint256",
          "name": "",
          "type": "uint256"
        }
      ],
      "stateMutability": "view",
      "type": "function"
    },
    {
      "inputs": [
        {
          "internalType": "uint256",
          "name": "tokenId",
          "type": "uint256"
        }
      ],
      "name": "tokenURI",
      "outputs": [
        {
          "internalType": "string",
          "name": "",
          "type": "string"
        }
      ],
      "stateMutability": "view",
      "type": "function"
    },
    {
      "inputs": [],
      "name": "totalSupply",
      "outputs": [
        {
          "internalType": "uint256",
          "name": "",
          "type": "uint256"
        }
      ],
      "stateMutability": "view",
      "type": "function"
    },
    {
      "inputs": [
        {
          "internalType": "address",
          "name": "from",
          "type": "address"
        },
        {
          "internalType": "address",
          "name": "to",
          "type": "address"
        },
        {
          "internalType": "uint256",
          "name": "tokenId",
          "type": "uint256"
        }
      ],
      "name": "transferFrom",
      "outputs": [],
      "stateMutability": "nonpayable",
      "type": "function"
    },
    {
      "inputs": [
        {
          "internalType": "address",
          "name": "newOwner",
          "type": "address"
        }
      ],
      "name": "transferOwnership",
      "outputs": [],
      "stateMutability": "nonpayable",
      "type": "function"
    },
    {
      "inputs": [],
      "name": "withdrawPayments",
      "outputs": [],
      "stateMutability": "nonpayable",
      "type": "function"
    }
  ],
  "bytecode": "0x60806040523480156200001157600080fd5b506040518060400160405280600581526020017f4a4b4e46540000000000000000000000000000000000000000000000000000008152506040518060400160405280600281526020017f4a4b000000000000000000000000000000000000000000000000000000000000815250816000908051906020019062000096929190620001d3565b508060019080519060200190620000af929190620001d3565b505050620000d2620000c6620000ef60201b60201c565b620000f760201b60201c565b620000e9600c620001bd60201b62000e451760201c565b620002e8565b600033905090565b6000600b60009054906101000a900473ffffffffffffffffffffffffffffffffffffffff16905081600b60006101000a81548173ffffffffffffffffffffffffffffffffffffffff021916908373ffffffffffffffffffffffffffffffffffffffff1602179055508173ffffffffffffffffffffffffffffffffffffffff168173ffffffffffffffffffffffffffffffffffffffff167f8be0079c531659141344cd1fd0a4f28419497f9722a3daafe3b4186f6b6457e060405160405180910390a35050565b6001816000016000828254019250508190555050565b828054620001e19062000283565b90600052602060002090601f01602090048101928262000205576000855562000251565b82601f106200022057805160ff191683800117855562000251565b8280016001018555821562000251579182015b828111156200025057825182559160200191906001019062000233565b5b50905062000260919062000264565b5090565b5b808211156200027f57600081600090555060010162000265565b5090565b600060028204905060018216806200029c57607f821691505b60208210811415620002b357620002b2620002b9565b5b50919050565b7f4e487b7100000000000000000000000000000000000000000000000000000000600052602260045260246000fd5b6137f280620002f86000396000f3fe6080604052600436106101405760003560e01c80636352211e116100b6578063b88d4fde1161006f578063b88d4fde1461045c578063c002d23d14610485578063c87b56dd146104b0578063d204c45e146104ed578063e985e9c514610509578063f2fde38b1461054657610140565b80636352211e1461034c57806370a0823114610389578063715018a6146103c65780638da5cb5b146103dd57806395d89b4114610408578063a22cb4651461043357610140565b806323b872dd1161010857806323b872dd1461023e5780632f745c591461026757806332cb6b0c146102a457806342842e0e146102cf5780634f6ccce7146102f85780636103d70b1461033557610140565b806301ffc9a71461014557806306fdde0314610182578063081812fc146101ad578063095ea7b3146101ea57806318160ddd14610213575b600080fd5b34801561015157600080fd5b5061016c600480360381019061016791906127ed565b61056f565b6040516101799190612c39565b60405180910390f35b34801561018e57600080fd5b50610197610581565b6040516101a49190612c54565b60405180910390f35b3480156101b957600080fd5b506101d460048036038101906101cf919061283f565b610613565b6040516101e19190612bd2565b60405180910390f35b3480156101f657600080fd5b50610211600480360381019061020c91906127b1565b610659565b005b34801561021f57600080fd5b50610228610771565b6040516102359190612eb6565b60405180910390f35b34801561024a57600080fd5b5061026560048036038101906102609190612657565b61077e565b005b34801561027357600080fd5b5061028e600480360381019061028991906127b1565b6107de565b60405161029b9190612eb6565b60405180910390f35b3480156102b057600080fd5b506102b9610883565b6040516102c69190612eb6565b60405180910390f35b3480156102db57600080fd5b506102f660048036038101906102f19190612657565b61088a565b005b34801561030457600080fd5b5061031f600480360381019061031a919061283f565b6108aa565b60405161032c9190612eb6565b60405180910390f35b34801561034157600080fd5b5061034a610941565b005b34801561035857600080fd5b50610373600480360381019061036e919061283f565b610999565b6040516103809190612bd2565b60405180910390f35b34801561039557600080fd5b506103b060048036038101906103ab91906125f2565b610a4b565b6040516103bd9190612eb6565b60405180910390f35b3480156103d257600080fd5b506103db610b03565b005b3480156103e957600080fd5b506103f2610b17565b6040516103ff9190612bd2565b60405180910390f35b34801561041457600080fd5b5061041d610b41565b60405161042a9190612c54565b60405180910390f35b34801561043f57600080fd5b5061045a60048036038101906104559190612721565b610bd3565b005b34801561046857600080fd5b50610483600480360381019061047e91906126a6565b610be9565b005b34801561049157600080fd5b5061049a610c4b565b6040516104a79190612eb6565b60405180910390f35b3480156104bc57600080fd5b506104d760048036038101906104d2919061283f565b610c55565b6040516104e49190612c54565b60405180910390f35b6105076004803603810190610502919061275d565b610c67565b005b34801561051557600080fd5b50610530600480360381019061052b919061261b565b610d2d565b60405161053d9190612c39565b60405180910390f35b34801561055257600080fd5b5061056d600480360381019061056891906125f2565b610dc1565b005b600061057a82610e5b565b9050919050565b6060600080546105909061310c565b80601f01602080910402602001604051908101604052809291908181526020018280546105bc9061310c565b80156106095780601f106105de57610100808354040283529160200191610609565b820191906000526020600020905b8154815290600101906020018083116105ec57829003601f168201915b5050505050905090565b600061061e82610ed5565b6004600083815260200190815260200160002060009054906101000a900473ffffffffffffffffffffffffffffffffffffffff169050919050565b600061066482610999565b90508073ffffffffffffffffffffffffffffffffffffffff168373ffffffffffffffffffffffffffffffffffffffff1614156106d5576040517f08c379a00000000000000000000000000000000000000000000000000000000081526004016106cc90612e36565b60405180910390fd5b8073ffffffffffffffffffffffffffffffffffffffff166106f4610f20565b73ffffffffffffffffffffffffffffffffffffffff16148061072357506107228161071d610f20565b610d2d565b5b610762576040517f08c379a000000000000000000000000000000000000000000000000000000000815260040161075990612db6565b60405180910390fd5b61076c8383610f28565b505050565b6000600880549050905090565b61078f610789610f20565b82610fe1565b6107ce576040517f08c379a00000000000000000000000000000000000000000000000000000000081526004016107c590612e96565b60405180910390fd5b6107d9838383611076565b505050565b60006107e983610a4b565b821061082a576040517f08c379a000000000000000000000000000000000000000000000000000000000815260040161082190612c76565b60405180910390fd5b600660008473ffffffffffffffffffffffffffffffffffffffff1673ffffffffffffffffffffffffffffffffffffffff168152602001908152602001600020600083815260200190815260200160002054905092915050565b620f424081565b6108a583838360405180602001604052806000815250610be9565b505050565b60006108b4610771565b82106108f5576040517f08c379a00000000000000000000000000000000000000000000000000000000081526004016108ec90612e76565b60405180910390fd5b6008828154811061092f577f4e487b7100000000000000000000000000000000000000000000000000000000600052603260045260246000fd5b90600052602060002001549050919050565b6109496112dd565b610951610b17565b73ffffffffffffffffffffffffffffffffffffffff166108fc479081150290604051600060405180830381858888f19350505050158015610996573d6000803e3d6000fd5b50565b6000806002600084815260200190815260200160002060009054906101000a900473ffffffffffffffffffffffffffffffffffffffff169050600073ffffffffffffffffffffffffffffffffffffffff168173ffffffffffffffffffffffffffffffffffffffff161415610a42576040517f08c379a0000000000000000000000000000000000000000000000000000000008152600401610a3990612e16565b60405180910390fd5b80915050919050565b60008073ffffffffffffffffffffffffffffffffffffffff168273ffffffffffffffffffffffffffffffffffffffff161415610abc576040517f08c379a0000000000000000000000000000000000000000000000000000000008152600401610ab390612d56565b60405180910390fd5b600360008373ffffffffffffffffffffffffffffffffffffffff1673ffffffffffffffffffffffffffffffffffffffff168152602001908152602001600020549050919050565b610b0b6112dd565b610b15600061135b565b565b6000600b60009054906101000a900473ffffffffffffffffffffffffffffffffffffffff16905090565b606060018054610b509061310c565b80601f0160208091040260200160405190810160405280929190818152602001828054610b7c9061310c565b8015610bc95780601f10610b9e57610100808354040283529160200191610bc9565b820191906000526020600020905b815481529060010190602001808311610bac57829003601f168201915b5050505050905090565b610be5610bde610f20565b8383611421565b5050565b610bfa610bf4610f20565b83610fe1565b610c39576040517f08c379a0000000000000000000000000000000000000000000000000000000008152600401610c3090612e96565b60405180910390fd5b610c458484848461158e565b50505050565b655af3107a400081565b6060610c60826115ea565b9050919050565b655af3107a4000341015610cb0576040517f08c379a0000000000000000000000000000000000000000000000000000000008152600401610ca790612d96565b60405180910390fd5b620f4240610cbc610771565b10610cfc576040517f08c379a0000000000000000000000000000000000000000000000000000000008152600401610cf390612e56565b60405180910390fd5b6000610d08600c6116fd565b9050610d14600c610e45565b610d1e838261170b565b610d288183611729565b505050565b6000600560008473ffffffffffffffffffffffffffffffffffffffff1673ffffffffffffffffffffffffffffffffffffffff16815260200190815260200160002060008373ffffffffffffffffffffffffffffffffffffffff1673ffffffffffffffffffffffffffffffffffffffff16815260200190815260200160002060009054906101000a900460ff16905092915050565b610dc96112dd565b600073ffffffffffffffffffffffffffffffffffffffff168173ffffffffffffffffffffffffffffffffffffffff161415610e39576040517f08c379a0000000000000000000000000000000000000000000000000000000008152600401610e3090612cb6565b60405180910390fd5b610e428161135b565b50565b6001816000016000828254019250508190555050565b60007f780e9d63000000000000000000000000000000000000000000000000000000007bffffffffffffffffffffffffffffffffffffffffffffffffffffffff1916827bffffffffffffffffffffffffffffffffffffffffffffffffffffffff19161480610ece5750610ecd8261179d565b5b9050919050565b610ede8161187f565b610f1d576040517f08c379a0000000000000000000000000000000000000000000000000000000008152600401610f1490612e16565b60405180910390fd5b50565b600033905090565b816004600083815260200190815260200160002060006101000a81548173ffffffffffffffffffffffffffffffffffffffff021916908373ffffffffffffffffffffffffffffffffffffffff160217905550808273ffffffffffffffffffffffffffffffffffffffff16610f9b83610999565b73ffffffffffffffffffffffffffffffffffffffff167f8c5be1e5ebec7d5bd14f71427d1e84f3dd0314c0f7b2291e5b200ac8c7c3b92560405160405180910390a45050565b600080610fed83610999565b90508073ffffffffffffffffffffffffffffffffffffffff168473ffffffffffffffffffffffffffffffffffffffff16148061102f575061102e8185610d2d565b5b8061106d57508373ffffffffffffffffffffffffffffffffffffffff1661105584610613565b73ffffffffffffffffffffffffffffffffffffffff16145b91505092915050565b8273ffffffffffffffffffffffffffffffffffffffff1661109682610999565b73ffffffffffffffffffffffffffffffffffffffff16146110ec576040517f08c379a00000000000000000000000000000000000000000000000000000000081526004016110e390612cd6565b60405180910390fd5b600073ffffffffffffffffffffffffffffffffffffffff168273ffffffffffffffffffffffffffffffffffffffff16141561115c576040517f08c379a000000000000000000000000000000000000000000000000000000000815260040161115390612d16565b60405180910390fd5b6111678383836118eb565b611172600082610f28565b6001600360008573ffffffffffffffffffffffffffffffffffffffff1673ffffffffffffffffffffffffffffffffffffffff16815260200190815260200160002060008282546111c29190613022565b925050819055506001600360008473ffffffffffffffffffffffffffffffffffffffff1673ffffffffffffffffffffffffffffffffffffffff16815260200190815260200160002060008282546112199190612f9b565b92505081905550816002600083815260200190815260200160002060006101000a81548173ffffffffffffffffffffffffffffffffffffffff021916908373ffffffffffffffffffffffffffffffffffffffff160217905550808273ffffffffffffffffffffffffffffffffffffffff168473ffffffffffffffffffffffffffffffffffffffff167fddf252ad1be2c89b69c2b068fc378daa952ba7f163c4a11628f55a4df523b3ef60405160405180910390a46112d88383836118fb565b505050565b6112e5610f20565b73ffffffffffffffffffffffffffffffffffffffff16611303610b17565b73ffffffffffffffffffffffffffffffffffffffff1614611359576040517f08c379a000000000000000000000000000000000000000000000000000000000815260040161135090612df6565b60405180910390fd5b565b6000600b60009054906101000a900473ffffffffffffffffffffffffffffffffffffffff16905081600b60006101000a81548173ffffffffffffffffffffffffffffffffffffffff021916908373ffffffffffffffffffffffffffffffffffffffff1602179055508173ffffffffffffffffffffffffffffffffffffffff168173ffffffffffffffffffffffffffffffffffffffff167f8be0079c531659141344cd1fd0a4f28419497f9722a3daafe3b4186f6b6457e060405160405180910390a35050565b8173ffffffffffffffffffffffffffffffffffffffff168373ffffffffffffffffffffffffffffffffffffffff161415611490576040517f08c379a000000000000000000000000000000000000000000000000000000000815260040161148790612d36565b60405180910390fd5b80600560008573ffffffffffffffffffffffffffffffffffffffff1673ffffffffffffffffffffffffffffffffffffffff16815260200190815260200160002060008473ffffffffffffffffffffffffffffffffffffffff1673ffffffffffffffffffffffffffffffffffffffff16815260200190815260200160002060006101000a81548160ff0219169083151502179055508173ffffffffffffffffffffffffffffffffffffffff168373ffffffffffffffffffffffffffffffffffffffff167f17307eab39ab6107e8899845ad3d59bd9653f200f220920489ca2b5937696c31836040516115819190612c39565b60405180910390a3505050565b611599848484611076565b6115a584848484611900565b6115e4576040517f08c379a00000000000000000000000000000000000000000000000000000000081526004016115db90612c96565b60405180910390fd5b50505050565b60606115f582610ed5565b6000600a600084815260200190815260200160002080546116159061310c565b80601f01602080910402602001604051908101604052809291908181526020018280546116419061310c565b801561168e5780601f106116635761010080835404028352916020019161168e565b820191906000526020600020905b81548152906001019060200180831161167157829003601f168201915b50505050509050600061169f611a97565b90506000815114156116b55781925050506116f8565b6000825111156116ea5780826040516020016116d2929190612bae565b604051602081830303815290604052925050506116f8565b6116f384611aae565b925050505b919050565b600081600001549050919050565b611725828260405180602001604052806000815250611b16565b5050565b6117328261187f565b611771576040517f08c379a000000000000000000000000000000000000000000000000000000000815260040161176890612d76565b60405180910390fd5b80600a60008481526020019081526020016000209080519060200190611798929190612416565b505050565b60007f80ac58cd000000000000000000000000000000000000000000000000000000007bffffffffffffffffffffffffffffffffffffffffffffffffffffffff1916827bffffffffffffffffffffffffffffffffffffffffffffffffffffffff1916148061186857507f5b5e139f000000000000000000000000000000000000000000000000000000007bffffffffffffffffffffffffffffffffffffffffffffffffffffffff1916827bffffffffffffffffffffffffffffffffffffffffffffffffffffffff1916145b80611878575061187782611b71565b5b9050919050565b60008073ffffffffffffffffffffffffffffffffffffffff166002600084815260200190815260200160002060009054906101000a900473ffffffffffffffffffffffffffffffffffffffff1673ffffffffffffffffffffffffffffffffffffffff1614159050919050565b6118f6838383611bdb565b505050565b505050565b60006119218473ffffffffffffffffffffffffffffffffffffffff16611cef565b15611a8a578373ffffffffffffffffffffffffffffffffffffffff1663150b7a0261194a610f20565b8786866040518563ffffffff1660e01b815260040161196c9493929190612bed565b602060405180830381600087803b15801561198657600080fd5b505af19250505080156119b757506040513d601f19601f820116820180604052508101906119b49190612816565b60015b611a3a573d80600081146119e7576040519150601f19603f3d011682016040523d82523d6000602084013e6119ec565b606091505b50600081511415611a32576040517f08c379a0000000000000000000000000000000000000000000000000000000008152600401611a2990612c96565b60405180910390fd5b805181602001fd5b63150b7a0260e01b7bffffffffffffffffffffffffffffffffffffffffffffffffffffffff1916817bffffffffffffffffffffffffffffffffffffffffffffffffffffffff191614915050611a8f565b600190505b949350505050565b606060405180602001604052806000815250905090565b6060611ab982610ed5565b6000611ac3611a97565b90506000815111611ae35760405180602001604052806000815250611b0e565b80611aed84611d12565b604051602001611afe929190612bae565b6040516020818303038152906040525b915050919050565b611b208383611ebf565b611b2d6000848484611900565b611b6c576040517f08c379a0000000000000000000000000000000000000000000000000000000008152600401611b6390612c96565b60405180910390fd5b505050565b60007f01ffc9a7000000000000000000000000000000000000000000000000000000007bffffffffffffffffffffffffffffffffffffffffffffffffffffffff1916827bffffffffffffffffffffffffffffffffffffffffffffffffffffffff1916149050919050565b611be6838383612099565b600073ffffffffffffffffffffffffffffffffffffffff168373ffffffffffffffffffffffffffffffffffffffff161415611c2957611c248161209e565b611c68565b8173ffffffffffffffffffffffffffffffffffffffff168373ffffffffffffffffffffffffffffffffffffffff1614611c6757611c6683826120e7565b5b5b600073ffffffffffffffffffffffffffffffffffffffff168273ffffffffffffffffffffffffffffffffffffffff161415611cab57611ca681612254565b611cea565b8273ffffffffffffffffffffffffffffffffffffffff168273ffffffffffffffffffffffffffffffffffffffff1614611ce957611ce88282612397565b5b5b505050565b6000808273ffffffffffffffffffffffffffffffffffffffff163b119050919050565b60606000821415611d5a576040518060400160405280600181526020017f30000000000000000000000000000000000000000000000000000000000000008152509050611eba565b600082905060005b60008214611d8c578080611d759061316f565b915050600a82611d859190612ff1565b9150611d62565b60008167ffffffffffffffff811115611dce577f4e487b7100000000000000000000000000000000000000000000000000000000600052604160045260246000fd5b6040519080825280601f01601f191660200182016040528015611e005781602001600182028036833780820191505090505b5090505b60008514611eb357600182611e199190613022565b9150600a85611e2891906131b8565b6030611e349190612f9b565b60f81b818381518110611e70577f4e487b7100000000000000000000000000000000000000000000000000000000600052603260045260246000fd5b60200101907effffffffffffffffffffffffffffffffffffffffffffffffffffffffffffff1916908160001a905350600a85611eac9190612ff1565b9450611e04565b8093505050505b919050565b600073ffffffffffffffffffffffffffffffffffffffff168273ffffffffffffffffffffffffffffffffffffffff161415611f2f576040517f08c379a0000000000000000000000000000000000000000000000000000000008152600401611f2690612dd6565b60405180910390fd5b611f388161187f565b15611f78576040517f08c379a0000000000000000000000000000000000000000000000000000000008152600401611f6f90612cf6565b60405180910390fd5b611f84600083836118eb565b6001600360008473ffffffffffffffffffffffffffffffffffffffff1673ffffffffffffffffffffffffffffffffffffffff1681526020019081526020016000206000828254611fd49190612f9b565b92505081905550816002600083815260200190815260200160002060006101000a81548173ffffffffffffffffffffffffffffffffffffffff021916908373ffffffffffffffffffffffffffffffffffffffff160217905550808273ffffffffffffffffffffffffffffffffffffffff16600073ffffffffffffffffffffffffffffffffffffffff167fddf252ad1be2c89b69c2b068fc378daa952ba7f163c4a11628f55a4df523b3ef60405160405180910390a4612095600083836118fb565b5050565b505050565b6008805490506009600083815260200190815260200160002081905550600881908060018154018082558091505060019003906000526020600020016000909190919091505550565b600060016120f484610a4b565b6120fe9190613022565b90506000600760008481526020019081526020016000205490508181146121e3576000600660008673ffffffffffffffffffffffffffffffffffffffff1673ffffffffffffffffffffffffffffffffffffffff168152602001908152602001600020600084815260200190815260200160002054905080600660008773ffffffffffffffffffffffffffffffffffffffff1673ffffffffffffffffffffffffffffffffffffffff168152602001908152602001600020600084815260200190815260200160002081905550816007600083815260200190815260200160002081905550505b6007600084815260200190815260200160002060009055600660008573ffffffffffffffffffffffffffffffffffffffff1673ffffffffffffffffffffffffffffffffffffffff16815260200190815260200160002060008381526020019081526020016000206000905550505050565b600060016008805490506122689190613022565b90506000600960008481526020019081526020016000205490506000600883815481106122be577f4e487b7100000000000000000000000000000000000000000000000000000000600052603260045260246000fd5b906000526020600020015490508060088381548110612306577f4e487b7100000000000000000000000000000000000000000000000000000000600052603260045260246000fd5b90600052602060002001819055508160096000838152602001908152602001600020819055506009600085815260200190815260200160002060009055600880548061237b577f4e487b7100000000000000000000000000000000000000000000000000000000600052603160045260246000fd5b6001900381819060005260206000200160009055905550505050565b60006123a283610a4b565b905081600660008573ffffffffffffffffffffffffffffffffffffffff1673ffffffffffffffffffffffffffffffffffffffff168152602001908152602001600020600083815260200190815260200160002081905550806007600084815260200190815260200160002081905550505050565b8280546124229061310c565b90600052602060002090601f016020900481019282612444576000855561248b565b82601f1061245d57805160ff191683800117855561248b565b8280016001018555821561248b579182015b8281111561248a57825182559160200191906001019061246f565b5b509050612498919061249c565b5090565b5b808211156124b557600081600090555060010161249d565b5090565b60006124cc6124c784612ef6565b612ed1565b9050828152602081018484840111156124e457600080fd5b6124ef8482856130ca565b509392505050565b600061250a61250584612f27565b612ed1565b90508281526020810184848401111561252257600080fd5b61252d8482856130ca565b509392505050565b60008135905061254481613760565b92915050565b60008135905061255981613777565b92915050565b60008135905061256e8161378e565b92915050565b6000815190506125838161378e565b92915050565b600082601f83011261259a57600080fd5b81356125aa8482602086016124b9565b91505092915050565b600082601f8301126125c457600080fd5b81356125d48482602086016124f7565b91505092915050565b6000813590506125ec816137a5565b92915050565b60006020828403121561260457600080fd5b600061261284828501612535565b91505092915050565b6000806040838503121561262e57600080fd5b600061263c85828601612535565b925050602061264d85828601612535565b9150509250929050565b60008060006060848603121561266c57600080fd5b600061267a86828701612535565b935050602061268b86828701612535565b925050604061269c868287016125dd565b9150509250925092565b600080600080608085870312156126bc57600080fd5b60006126ca87828801612535565b94505060206126db87828801612535565b93505060406126ec878288016125dd565b925050606085013567ffffffffffffffff81111561270957600080fd5b61271587828801612589565b91505092959194509250565b6000806040838503121561273457600080fd5b600061274285828601612535565b92505060206127538582860161254a565b9150509250929050565b6000806040838503121561277057600080fd5b600061277e85828601612535565b925050602083013567ffffffffffffffff81111561279b57600080fd5b6127a7858286016125b3565b9150509250929050565b600080604083850312156127c457600080fd5b60006127d285828601612535565b92505060206127e3858286016125dd565b9150509250929050565b6000602082840312156127ff57600080fd5b600061280d8482850161255f565b91505092915050565b60006020828403121561282857600080fd5b600061283684828501612574565b91505092915050565b60006020828403121561285157600080fd5b600061285f848285016125dd565b91505092915050565b61287181613056565b82525050565b61288081613068565b82525050565b600061289182612f58565b61289b8185612f6e565b93506128ab8185602086016130d9565b6128b4816132a5565b840191505092915050565b60006128ca82612f63565b6128d48185612f7f565b93506128e48185602086016130d9565b6128ed816132a5565b840191505092915050565b600061290382612f63565b61290d8185612f90565b935061291d8185602086016130d9565b80840191505092915050565b6000612936602b83612f7f565b9150612941826132b6565b604082019050919050565b6000612959603283612f7f565b915061296482613305565b604082019050919050565b600061297c602683612f7f565b915061298782613354565b604082019050919050565b600061299f602583612f7f565b91506129aa826133a3565b604082019050919050565b60006129c2601c83612f7f565b91506129cd826133f2565b602082019050919050565b60006129e5602483612f7f565b91506129f08261341b565b604082019050919050565b6000612a08601983612f7f565b9150612a138261346a565b602082019050919050565b6000612a2b602983612f7f565b9150612a3682613493565b604082019050919050565b6000612a4e602e83612f7f565b9150612a59826134e2565b604082019050919050565b6000612a71602f83612f7f565b9150612a7c82613531565b604082019050919050565b6000612a94603e83612f7f565b9150612a9f82613580565b604082019050919050565b6000612ab7602083612f7f565b9150612ac2826135cf565b602082019050919050565b6000612ada602083612f7f565b9150612ae5826135f8565b602082019050919050565b6000612afd601883612f7f565b9150612b0882613621565b602082019050919050565b6000612b20602183612f7f565b9150612b2b8261364a565b604082019050919050565b6000612b43601283612f7f565b9150612b4e82613699565b602082019050919050565b6000612b66602c83612f7f565b9150612b71826136c2565b604082019050919050565b6000612b89602e83612f7f565b9150612b9482613711565b604082019050919050565b612ba8816130c0565b82525050565b6000612bba82856128f8565b9150612bc682846128f8565b91508190509392505050565b6000602082019050612be76000830184612868565b92915050565b6000608082019050612c026000830187612868565b612c0f6020830186612868565b612c1c6040830185612b9f565b8181036060830152612c2e8184612886565b905095945050505050565b6000602082019050612c4e6000830184612877565b92915050565b60006020820190508181036000830152612c6e81846128bf565b905092915050565b60006020820190508181036000830152612c8f81612929565b9050919050565b60006020820190508181036000830152612caf8161294c565b9050919050565b60006020820190508181036000830152612ccf8161296f565b9050919050565b60006020820190508181036000830152612cef81612992565b9050919050565b60006020820190508181036000830152612d0f816129b5565b9050919050565b60006020820190508181036000830152612d2f816129d8565b9050919050565b60006020820190508181036000830152612d4f816129fb565b9050919050565b60006020820190508181036000830152612d6f81612a1e565b9050919050565b60006020820190508181036000830152612d8f81612a41565b9050919050565b60006020820190508181036000830152612daf81612a64565b9050919050565b60006020820190508181036000830152612dcf81612a87565b9050919050565b60006020820190508181036000830152612def81612aaa565b9050919050565b60006020820190508181036000830152612e0f81612acd565b9050919050565b60006020820190508181036000830152612e2f81612af0565b9050919050565b60006020820190508181036000830152612e4f81612b13565b9050919050565b60006020820190508181036000830152612e6f81612b36565b9050919050565b60006020820190508181036000830152612e8f81612b59565b9050919050565b60006020820190508181036000830152612eaf81612b7c565b9050919050565b6000602082019050612ecb6000830184612b9f565b92915050565b6000612edb612eec565b9050612ee7828261313e565b919050565b6000604051905090565b600067ffffffffffffffff821115612f1157612f10613276565b5b612f1a826132a5565b9050602081019050919050565b600067ffffffffffffffff821115612f4257612f41613276565b5b612f4b826132a5565b9050602081019050919050565b600081519050919050565b600081519050919050565b600082825260208201905092915050565b600082825260208201905092915050565b600081905092915050565b6000612fa6826130c0565b9150612fb1836130c0565b9250827fffffffffffffffffffffffffffffffffffffffffffffffffffffffffffffffff03821115612fe657612fe56131e9565b5b828201905092915050565b6000612ffc826130c0565b9150613007836130c0565b92508261301757613016613218565b5b828204905092915050565b600061302d826130c0565b9150613038836130c0565b92508282101561304b5761304a6131e9565b5b828203905092915050565b6000613061826130a0565b9050919050565b60008115159050919050565b60007fffffffff0000000000000000000000000000000000000000000000000000000082169050919050565b600073ffffffffffffffffffffffffffffffffffffffff82169050919050565b6000819050919050565b82818337600083830152505050565b60005b838110156130f75780820151818401526020810190506130dc565b83811115613106576000848401525b50505050565b6000600282049050600182168061312457607f821691505b6020821081141561313857613137613247565b5b50919050565b613147826132a5565b810181811067ffffffffffffffff8211171561316657613165613276565b5b80604052505050565b600061317a826130c0565b91507fffffffffffffffffffffffffffffffffffffffffffffffffffffffffffffffff8214156131ad576131ac6131e9565b5b600182019050919050565b60006131c3826130c0565b91506131ce836130c0565b9250826131de576131dd613218565b5b828206905092915050565b7f4e487b7100000000000000000000000000000000000000000000000000000000600052601160045260246000fd5b7f4e487b7100000000000000000000000000000000000000000000000000000000600052601260045260246000fd5b7f4e487b7100000000000000000000000000000000000000000000000000000000600052602260045260246000fd5b7f4e487b7100000000000000000000000000000000000000000000000000000000600052604160045260246000fd5b6000601f19601f8301169050919050565b7f455243373231456e756d657261626c653a206f776e657220696e646578206f7560008201527f74206f6620626f756e6473000000000000000000000000000000000000000000602082015250565b7f4552433732313a207472616e7366657220746f206e6f6e20455243373231526560008201527f63656976657220696d706c656d656e7465720000000000000000000000000000602082015250565b7f4f776e61626c653a206e6577206f776e657220697320746865207a65726f206160008201527f6464726573730000000000000000000000000000000000000000000000000000602082015250565b7f4552433732313a207472616e736665722066726f6d20696e636f72726563742060008201527f6f776e6572000000000000000000000000000000000000000000000000000000602082015250565b7f4552433732313a20746f6b656e20616c7265616479206d696e74656400000000600082015250565b7f4552433732313a207472616e7366657220746f20746865207a65726f2061646460008201527f7265737300000000000000000000000000000000000000000000000000000000602082015250565b7f4552433732313a20617070726f766520746f2063616c6c657200000000000000600082015250565b7f4552433732313a2061646472657373207a65726f206973206e6f74206120766160008201527f6c6964206f776e65720000000000000000000000000000000000000000000000602082015250565b7f45524337323155524953746f726167653a2055524920736574206f66206e6f6e60008201527f6578697374656e7420746f6b656e000000000000000000000000000000000000602082015250565b7f5472616e73616374696f6e2076616c756520646964206e6f7420657175616c2060008201527f746865206d696e74207072696365210000000000000000000000000000000000602082015250565b7f4552433732313a20617070726f76652063616c6c6572206973206e6f7420746f60008201527f6b656e206f776e6572206e6f7220617070726f76656420666f7220616c6c0000602082015250565b7f4552433732313a206d696e7420746f20746865207a65726f2061646472657373600082015250565b7f4f776e61626c653a2063616c6c6572206973206e6f7420746865206f776e6572600082015250565b7f4552433732313a20696e76616c696420746f6b656e2049440000000000000000600082015250565b7f4552433732313a20617070726f76616c20746f2063757272656e74206f776e6560008201527f7200000000000000000000000000000000000000000000000000000000000000602082015250565b7f4d617820737570706c7920726561636865640000000000000000000000000000600082015250565b7f455243373231456e756d657261626c653a20676c6f62616c20696e646578206f60008201527f7574206f6620626f756e64730000000000000000000000000000000000000000602082015250565b7f4552433732313a2063616c6c6572206973206e6f7420746f6b656e206f776e6560008201527f72206e6f7220617070726f766564000000000000000000000000000000000000602082015250565b61376981613056565b811461377457600080fd5b50565b61378081613068565b811461378b57600080fd5b50565b61379781613074565b81146137a257600080fd5b50565b6137ae816130c0565b81146137b957600080fd5b5056fea2646970667358221220eb532602550c2494fef0237921a65e31e9583e3333e5922baccb5e498a568d1264736f6c63430008010033",
  "linkReferences": {},
  "deployedLinkReferences": {}
}